S00B00004D43312E7372656358
S11300000C942A000C9447000C9447000C9447006D
S11300100C9447000C9447000C9447000C94470040
S11300200C9447000C9447000C9447000C94470030
S11300300C9447000C9447000C9447000C94470020
S11300400C9447000C9447000C9447000C94470010
S11300500C94470011241FBECFE5D8E0DEBFCDBF0E
S113006010E0A0E6B0E0E6EEF6E002C005900D92E6
S1130070A43AB107D9F720E0A4EAB0E001C01D9288
S1130080A53AB207E1F70E9422030C9471030C9481
S11300900000823499F018F4813431F008958334E7
S11300A0B9F08434F9F00895613021F48AB3806F93
S11300B08ABB08958AB38F708ABB0895613021F496
S11300C087B3806F87BB089587B38F7087BB08950C
S11300D0613021F484B3806F84BB089584B38F703E
S11300E084BB0895613021F481B3806F81BB08958E
S11300F081B38F7081BB0895823499F018F48134F0
S113010031F008958334B9F08434F9F008956130FE
S113011021F48AB38F608ABB08958AB3807F8ABB37
S11301200895613021F487B38F6087BB089587B346
S1130130807F87BB0895613021F484B38F6084BBD2
S1130140089584B3807F84BB0895613021F481B322
S11301508F6081BB089581B3807F81BB0895823411
S113016071F018F4813431F00895833469F08434E3
S113017081F008958AB3607F682B6ABB089587B3C2
S1130180607F682B67BB089584B3607F682B64BB72
S1130190089581B3607F682B61BB0895823471F048
S11301A018F4813431F00895833469F0843481F093
S11301B008958AB36F70682B6ABB089587B36F7014
S11301C0682B67BB089584B36F70682B64BB089574
S11301D081B36F70682B61BB0895823419F118F4F0
S11301E0813439F008958334B1F1843409F44CC076
S11301F00895613059F42BB381E090E002C0880F78
S1130200991F4A95E2F7822B8BBB08952BB381E0AB
S113021090E002C0880F991F4A95E2F780958223E7
S11302208BBB0895613059F428B381E090E002C09B
S1130230880F991F4A95E2F7822B88BB089528B34B
S113024081E090E002C0880F991F4A95E2F78095FB
S1130250822388BB0895613059F425B381E090E08E
S113026002C0880F991F4A95E2F7822B85BB089537
S113027025B381E090E002C0880F991F4A95E2F708
S11302808095822385BB0895613059F422B381E0BF
S113029090E002C0880F991F4A95E2F7822B82BB37
S11302A0089522B381E090E002C0880F991F4A9517
S11302B0E2F78095822382BB0895823489F018F492
S11302C0813431F00895833499F08434C9F0089569
S11302D08BB38F708BBB8BB3607F682B6BBB089524
S11302E088B38F7088BB88B3607F682B68BB089520
S11302F085B38F7085BB85B3607F682B65BB08951C
S113030082B38F7082BB82B3607F682B62BB089517
S11303108234A1F018F4813431F008958334C9F0A3
S1130320843411F108958BB38F708BBB8BB390E140
S1130330699FB0011124682B6BBB089588B38F703B
S113034088BB88B390E1699FB0011124682B68BB16
S1130350089585B38F7085BB85B390E1699FB00123
S11303601124682B65BB089582B38F7082BB82B35E
S113037090E1699FB0011124682B62BB0895823417
S113038061F018F4813431F00895833449F08434F1
S113039051F008958FEF8BBB08958FEF88BB0895BC
S11303A08FEF85BB08958FEF82BB089560E084E4EE
S11303B00E94490061E084E40E947C0084E40E947D
S11303C0BF010895EF92FF920F931F93CF93DF9392
S11303D0CDB7DEB760970FB6F894DEBF0FBECDBFC2
S11303E080E1E0E6F0E0DE01119601900D928A953D
S11303F0E1F7E12CF12C01E010E084E40E94BF015C
S113040092B398010E2C02C0220F331F0A94E2F714
S1130410822F8095892382BB849B0DC025E030E028
S113042080B390E0022E02C0959587950A94E2F776
S113043080FD14C002C024E030E0F701EE0FFF1F7E
S1130440EE0FFF1F81E090E08C0F9D1FE80FF91F56
S11304502E0F3F1FF901349780810DC02F5F3F4F4E
S113046028303105E9F69FEFE91AF90A84E0E81625
S1130470F10419F68FEF60960FB6F894DEBF0FBE45
S1130480CDBFDF91CF911F910F91FF90EF90089511
S113049043E061E082E40E94ED0087EE93E001977F
S11304A0F1F700C0000043E060E082E40E94ED0048
S11304B087EE93E00197F1F700C000000895CF9311
S11304C0C82F41E060E082E40E94ED006C2F81E4DB
S11304D00E945D010E9448026C2F81E40E94880101
S11304E00E944802CF91089560EF81E40E94AF001A
S11304F06EE082E40E94CE0042E060E082E40E946A
S1130500ED0083E30E945F0282E30E945F0288E2BF
S11305100E945F028FE00E945F0281E00E945F02FE
S113052087E893E10197F1F700C000000895CF93A5
S1130530C82F41E061E082E40E94ED006C2F81E469
S11305400E945D010E9448026C2F81E40E94880190
S11305500E944802CF910895CF93DF93EC018881E4
S1130560882331F021960E94970289918111FBCF53
S1130570DF91CF910895823068F4603158F481118D
S113058005C080E8860F0E945F02089580EC860F04
S11305900E945F0208958091A400811119C080EF28
S11305A081BB0E94D6010E94740260E080E00E9438
S11305B0BB0280E790E00E94AC0260E081E00E9410
S11305C0BB028EE790E00E94AC0281E08093A4001D
S11305D0089580EF81BB0E94D6010E94740260E0FE
S11305E080E00E94BB028CE890E00E94AC0260E0D4
S11305F081E00E94BB0208958033F9F4FB018081FD
S11306008033E1F491819033E1F482818033C1F449
S113061093819033B1F480EF81BB0E94D6010E9494
S1130620740260E080E00E94BB028CE990E00E94CA
S1130630AC02A09AA89A81E30895089580E30895EE
S1130640892F0895CF93DF9300D000D0CDB7DEB7C4
S113065010E0E12CF12C6894CC24C1F8DD24D3946F
S11306600E94CB02111116C00E94E201082F8F3F95
S1130670B9F30E9497022FEF81EE94E0215080405D
S11306809040E1F700C00000003351F70E94E902F6
S11306901D2DE6CF113021F70E94E201E1E0F0E0E8
S11306A0EC0FFD1FEE0DFF1D80838F3FC9F20E94EA
S11306B097022FEF81EE94E0215080409040E1F7C3
S11306C000C0000023E0E216F10439F4BE016F5FBC
S11306D07F4F80E30E94FC021C2D8FEFE81AF80A7A
S10906E0BFCFF894FFCF28
S11306E63738392F3435362A3132332D41303D2BC4
S11306F6303A2041646D696E204D6F646500313A6D
S1130706204775657374204D6F646500456E746586
S1130716722050617373776F72643A0057656C6325
S10707266F6D65008A
S9030000FC
